:020000020000FC
:0200000028C016
:100040003CC03F065B4F666D7D077F6F777C395EF6
:10005000797100E80093610004E0009361000FEF04
:100060000DBF08E00EBF0FEF0AB904B900E00BB9ED
:1000700005B900E207B90FE108B9F0E0E2E4049144
:100080000BB900E00093C1001FEF20E070E060E0DA
:100090002BB965B92227662777270E9455007894E7
:1000A0000E9490000E947700FDCF03E005BD04E6AA
:1000B00006BD01E000936E0008950F930FB70F93F4
:1000C0001F9304E606BD7395743661F47727639534
:1000D0006F70062F021729F4662708B110E2012776
:1000E00008B965B91F910F910FBF0F91189506B10F
:1000F0001017E9F30E94960006B11017C1F3102FF4
:100100000E94830008950E3119F00D3131F00895E9
:100110002395203129F420E003C02A950AF42FE02A
:10012000F0E0E2E4E20F04910BB9E1CF3FEF3A9542
:100130003030E9F73FEF3A953030E9F73FEF3A9545
:060140003030E9F70895DC
:00000001FF
