:020000020000FC
:1000000000E80093610004E0009361000E944B004F
:100010000FEF0DBF08E00EBF3F065B4F666D7D071B
:100020007F6F777C395E79710FEF0AB904B900E010
:100030000BB905B900E207B90FE108B9F0E0E8E152
:1000400004910BB900E00093C1001FEF20E050E0E5
:1000500060E02BB965B906B11017E9F30E945000B2
:1000600006B11017C1F3102F0E943700F4CF0E31E4
:1000700019F00D3131F008952395203131F420E04D
:1000800004C02A9512F42FE000C0F0E0E8E1E20F8E
:1000900044914BB9E0CF03E005BD04E606BD0895E9
:1000A0003FEF3A953030E9F73FEF3A953030E9F7D6
:0A00B0003FEF3A953030E9F708956C
:00000001FF
